:020000040800F2
:1000000060070020CD010008D1060008770600082F
:10001000CD060008F5040008630C0008000000008D
:10002000000000000000000000000000A908000817
:10003000F90400080000000059070008BD09000885
:10004000E7010008E7010008E7010008E7010008F0
:10005000E7010008E7010008E7010008E7010008E0
:10006000E7010008E7010008E7010008E7010008D0
:10007000E7010008E7010008E7010008E7010008C0
:10008000E7010008E7010008E7010008E7010008B0
:10009000E7010008E7010008E7010008E7010008A0
:1000A000E7010008E7010008E7010008E701000890
:1000B000E7010008E7010008E7010008E701000880
:1000C000E7010008E7010008E7010008E701000870
:1000D000E7010008E7010008210A0008E70100081D
:1000E000E7010008E7010008E7010008E701000850
:1000F000E7010008E7010008E7010008E701000840
:10010000E7010008E7010008E7010008E70100082F
:10011000E7010008E7010008E7010008E70100081F
:10012000E7010008E7010008E7010008E70100080F
:1001300000F002F800F03AF80AA090E8000C8244BF
:100140008344AAF10107DA4501D100F02FF8AFF29C
:10015000090EBAE80F0013F0010F18BFFB1A43F0A5
:1001600001031847E012000000130000103A24BFFA
:1001700078C878C1FAD8520724BF30C830C144BF0C
:1001800004680C607047000000230024002500264E
:10019000103A28BF78C1FBD8520728BF30C148BFEA
:1001A0000B6070471FB51FBD10B510BD00F033F8D0
:1001B0001146FFF7F7FF00F0A1FD00F051F803B47E
:1001C000FFF7F2FF03BC00F04EFD00000948804736
:1001D00009480047FEE7FEE7FEE7FEE7FEE7FEE729
:1001E000FEE7FEE7FEE7FEE704480549054A064B41
:1001F00070470000C10900083101000860010020BB
:1002000060070020600300206003002070477047F3
:10021000704770477047754600F02CF8AE460500F1
:100220006946534620F00700854618B020B5FFF711
:10023000DBFFBDE820404FF000064FF000074FF015
:1002400000084FF0000B21F00701AC46ACE8C009F4
:10025000ACE8C009ACE8C009ACE8C0098D467047FD
:1002600010B50446AFF300802046BDE81040FFF70C
:10027000A6BF000000487047FC00002021B1826842
:1002800042F00102826003E0826822F00102826093
:100290007047000010B504461248844208D101217D
:1002A000401500F087FA0021601500F083FA17E08E
:1002B0000D48844208D10121001500F07BFA00218D
:1002C000201500F077FA0BE00848844208D101219C
:1002D000C80300F06FFA00214FF4004000F06AFA02
:1002E00010BD00000024014000280140003C0140F6
:1002F000014600208A6802F004020AB1012000E0F1
:10030000002070470146C86C80B27047024600204A
:1003100013680B400BB1012000E00020704701463C
:1003200000208A6802F008020AB1012000E00020E3
:100330007047000030B502460020002350680F4C83
:1003400020400D790C6844EA0524204350609068F1
:100350000B4C2040D1E902542C434D7944EA45042A
:1003600020439060D06A20F470000C7C641EE4B2DC
:10037000234340EA0350D06230BD0000FFFEF0FF8F
:10038000FDF7F1FFF0B504460D4600200021092DD0
:1003900011DDE068A5F10A0606EB4607072606FA16
:1003A00007F18843A5F10A0606EB460603FA06F1B3
:1003B0000843E0600CE0206905EB4507072606FAD4
:1003C00007F1884305EB450603FA06F1084320616F
:1003D000072A0FDA606B561E06EB86071F2606FA01
:1003E00007F18843561E06EB860605FA06F1084318
:1003F000606322E00D2A0FDA206BD61F06EB86071A
:100400001F2606FA07F18843D61F06EB860605FA73
:1004100006F10843206310E0E06AA2F10D0606EB46
:1004200086071F2606FA07F18843A2F10D0606EBA0
:10043000860605FA06F10843E062F0BD816841F0E6
:1004400008018160704721B1826842F4A002826095
:1004500003E0826822F4A00282607047816841F064
:10046000040181607047000000B587B001214FF49E
:10047000017000F08FF94FF4004000F06FF9022096
:10048000ADF8040000208DF8070001A9174800F01E
:1004900034F81748FFF7FEFE002002908DF80C009C
:1004A0008DF80D004FF4602004900020059001208D
:1004B0008DF8180002A90E48FFF73CFF01210C48F7
:1004C000FFF7DCFE0A48FFF7B9FF00BF0848FFF757
:1004D00026FF0028FAD10648FFF7C0FF00BF0448F6
:1004E000FFF706FF0028FAD107B000BD0008014061
:1004F0000024014000BFFEE770472DE9F0410246AD
:1005000000250026002000230024002791F803C0C6
:100510000CF00F0591F803C00CF0100CBCF1000FAB
:1005200003D091F802C04CEA050591F800C0BCF177
:10053000000F31D0146800202BE04FF0010C0CFAB2
:1005400000F3B1F800C00CEA03069E4220D18300FC
:100550004FF00F0C0CFA03F7BC4305FA03FC4CEA0E
:10056000040491F803C0BCF1280F06D14FF0010C30
:100570000CFA00FCC2F814C00AE091F803C0BCF108
:10058000480F05D14FF0010C0CFA00FCC2F810C066
:10059000401C0828D1D31460B1F800C0BCF1FF0F93
:1005A00034DD546800202EE000F1080C4FF0010803
:1005B00008FA0CF3B1F800C00CEA03069E4221D100
:1005C00083004FF00F0C0CFA03F7BC4305FA03FC51
:1005D0004CEA040491F803C0BCF1280F05D100F1E6
:1005E000080C08FA0CF8C2F8148091F803C0BCF1AA
:1005F000480F07D100F1080C4FF0010808FA0CF879
:10060000C2F81080401C0828CED35460BDE8F081A9
:100610000161704710B504460723012221460948AD
:10062000FFF7B0FE01210748FFF70DFF00BF0221D1
:100630000448FFF76BFE0028F9D00248FFF762FE7E
:1006400010BD0000002401402DE9F04107460C4692
:100650000025002608E03846FFF7DCFF05440520AA
:1006600000F026FB701CC6B2A642F4DBB5FBF4F02A
:1006700080B2BDE8F08100BFFEE7000008B51020A1
:100680008DF8030003208DF802000121242000F0E2
:1006900081F84FF48070ADF8000069460948FFF713
:1006A0002CFF4FF480710748FFF7B2FF0420ADF82C
:1006B000000069460448FFF720FF04210248FFF7C5
:1006C000A7FF08BD000801400014014000BFFEE77D
:1006D0007047000070B5002100230F22C47804B3D6
:1006E000154C246804F4E064C4F5E064210AC1F107
:1006F0000403CA40447804FA03F184781440214387
:1007000009010E4C0678A155047804F01F05012458
:10071000AC4005786D11AD0005F1E025C5F800414C
:1007200009E0047804F01F050124AC40044D06786C
:10073000761145F8264070BD0CED00E000E400E0C5
:1007400080E100E002490143024A11607047000065
:100750000000FA050CED00E07047000001460020A3
:10076000034A506820F4404008435060704700003E
:100770000010024029B1064AD2690243044BDA61F3
:1007800004E0034AD2698243014BDA6170470000FA
:100790000010024029B1064A92690243044B9A6153
:1007A00004E0034A92698243014B9A61704700005A
:1007B0000010024029B1064AD2680243044BDA60B5
:1007C00004E0034AD2688243014BDA6070470000BC
:1007D0000010024030B500210022002400232D4DDE
:1007E0006D6805F00C0121B1042905D0082923D139
:1007F00005E0294D056022E0274D05601FE0254DED
:100800006D6805F47012234D6D6805F4803402257F
:1008100005EB92421CB9214D554305600BE01D4D7F
:100820006D6805F400351DB11C4D5543056002E0AF
:10083000194D5543056002E0174D056000BF00BF2C
:10084000144D6D6805F0F0010909154D6B5C0568E4
:10085000DD4045600F4D6D6805F4E061090A104DFB
:100860006B5C4568DD4085600A4D6D6805F460513C
:10087000C90A0B4D6B5C4568DD40C560054D6D6870
:1008800005F44041890B074D6B5CC568B5FBF3F57A
:10089000056130BD0010024000127A0000093D00E1
:1008A0001E0000202E000020704710B500F002F856
:1008B00010BD00000CB50020019000903348006886
:1008C00040F480303149086000BF3048006800F4CF
:1008D000003000900198401C0190009818B90198D0
:1008E000B0F5A06FF1D12948006800F4003010B1D4
:1008F0000120009001E0002000900098012843D1E1
:100900002348006840F0100021490860084600684C
:1009100020F0030008600846006840F0020008600C
:100920001A484068194948600846406848600846C7
:10093000406840F4806048600846406820F47C10BD
:1009400048600846406840F4E8104860084600687F
:1009500040F08070086000BF0C48006800F0007034
:100960000028F9D00948406820F003000749486092
:100970000846406840F00200486000BF03484068F5
:1009800000F00C000828F9D10CBD00000010024056
:1009900000200240042808D14FF0E021096941F00D
:1009A00004014FF0E022116107E04FF0E0210969F6
:1009B00021F004014FF0E022116170477047000000
:1009C00010B51348006840F001001149086008465E
:1009D0004068104908400E494860084600680E49C2
:1009E00008400B4908600846006820F48020086031
:1009F0000846406820F4FE0048604FF41F008860FD
:100A0000FFF753FF4FF000600449086010BD00007D
:100A1000001002400000FFF8FFFFF6FE08ED00E0C6
:100A200010B540F225511D4800F057F810B31B488F
:100A300000F00EF9C4B21A48008800F40040C8B9AA
:100A40001748008800F4804060B10A2C03D00020D1
:100A50001349088020E01248008840F40040104903
:100A6000088019E00D2C06D10D48008840F4804024
:100A70000B49088010E00A480088C0F30D000949BE
:100A80000C5407480088401C054908800846008827
:100A9000C72801DD0020088010BD00000044004090
:100AA0001C0000203400002021B1828942F4005251
:100AB000828104E082894DF6FF731A40828170477B
:100AC00002460020B1F5007F00D100BF13880B4023
:100AD0000BB1012000E00020704770B502460024F1
:100AE00000230025002040F66A16B14200D100BF65
:100AF000C1F3421501F01F03012606FA03F3012D8D
:100B000002D19689334006E0022D02D1168A334085
:100B100001E0968A33400C12012606FA04F4168886
:100B2000344013B10CB1012000E0002070BDF0B5DD
:100B30000346002400260025002040F66A17B9422B
:100B400000D100BF1846C1F3421401F01F0601276F
:100B500007FA06F5012C01D10C3004E0022C01D17A
:100B6000103000E014301AB107682F43076002E02C
:100B70000768AF430760F0BD2DE9F04786B0054632
:100B80000E460024A24600BFA1460027B08900B14E
:100B900000BF2F462C8A4CF6FF700440F0880443B7
:100BA0002C82AC894EF6F3100440B088318908439A
:100BB000718908430443AC81AC8A4FF6FF4004407E
:100BC000B0890443AC8201A8FFF704FE1F488742A6
:100BD00002D1DDF810A001E0DDF80CA0A88900F436
:100BE000004040B10AEBCA0000EB0A10316849002E
:100BF000B0FBF1F807E00AEBCA0000EB0A1031681D
:100C00008900B0FBF1F86420B8FBF0F00401200982
:100C1000642101FB1089A88900F4004040B1322012
:100C200000EBC900B0FBF1F000F00700044308E05E
:100C3000322000EB09106421B0FBF1F000F00F004E
:100C400004432C8106B0BDE8F08700000038014065
:100C500001468888C0F308007047C1F3080282800B
:100C6000704700BFFEE7014600BF704710B56FF048
:100C70000400FFF78FFE0A4800680A49B0FBF1F054
:100C8000094908700846007800EB4001C1EBC0102C
:100C90004FF6FF7101EAC0000449088010BD000052
:100CA0000000002000127A0014000020160000202E
:100CB0000146114A12884A434FF0E0235A6100224C
:100CC0009A611A46126942F001021A6100BF4FF0A0
:100CD000E022106900F001021AB100F48032002A0B
:100CE000F5D04FF0E022126922F001024FF0E0232C
:100CF0001A6100229A61704716000020FFF7B6FFC4
:100D00004FF4165000F0F2F8FFF7B8FCFFF7ACFB19
:100D10004FF4A060FFF716FD00206F4908606F498F
:100D2000C1F888014FF4FA70FFF7C2FFD2E00A2140
:100D30000120FFF789FC8246504600F0A3FA834663
:100D400000F058FA07464FF06632654B00F054F950
:100D5000054600F01FF981466249484600F0A6FAB0
:100D60008146484600F072FA044676215E48FFF755
:100D700074FF00BF40215C48FFF7A2FE0128F9D1B3
:100D80003D215948FFF769FF00BF40215648FFF752
:100D900097FE0128F9D142F2107094FBF0F0303048
:100DA00085B229465048FFF758FF00BF40214E4802
:100DB000FFF786FE0128F9D12E214B48FFF74DFFA2
:100DC00000BF40214848FFF77BFE0128F9D142F2DD
:100DD000107094FBF0F100FB11404FF47A7190FB1E
:100DE000F1F0303085B229463F48FFF736FF00BFAB
:100DF00040213D48FFF764FE0128F9D142F210700E
:100E000094FBF0F100FB11404FF47A7190FBF1F28A
:100E100001FB1200642190FBF1F0303085B22946CD
:100E20003148FFF71AFF00BF40212F48FFF748FE67
:100E30000128F9D142F2107094FBF0F100FB11404F
:100E40004FF47A7190FBF1F201FB1200642190FBE8
:100E5000F1F201FB12000A2190FBF1F0303085B273
:100E600029462148FFF7F9FE00BF40211E48FFF741
:100E700027FE0128F9D142F2107094FBF0F100FB3B
:100E800011404FF47A7190FBF1F201FB12006421E2
:100E900090FBF1F201FB12000A2190FBF1F201FB41
:100EA0001200303085B229460F48FFF7D6FE00BF4A
:100EB00040210D48FFF704FE0128F9D10A210A4814
:100EC000FFF7CBFE00BF40210748FFF7F9FD0128DF
:100ED000F9D100BF2BE70000A0012142008022428F
:100EE00066664A3F00401C460044004010B586B08C
:100EF000044601210520FFF74DFC01210420FFF7E6
:100F000049FC01214804FFF735FC0820ADF8140026
:100F100004208DF8170005A91C48FFF7EEFA0420FD
:100F2000ADF8140003208DF8160018208DF8170076
:100F300005A91648FFF7E1FA26208DF810000120D8
:100F40008DF811008DF812008DF8130004A8FFF73A
:100F5000C1FB00940020ADF80400ADF80600ADF828
:100F60000800ADF80C000C20ADF80A0069460848EE
:100F7000FFF702FE012240F225510548FFF7D7FD99
:100F800001210348FFF790FD06B010BD00080140A5
:100F90000044004021F00042A2F16052B2F5801FEF
:100FA00001F0004328BFD2F17F6C0BD95FEA001C2F
:100FB00043EAC20242EB507018BF704728BF20F0CE
:100FC00001007047B2F5801FBCBF184670474FEA5A
:100FD000410C1CF5001F02D2084600F02EBA70B575
:100FE00000F0B4F800000089FFF7F6BF4FF00040B2
:100FF000A0F5800070470000DFF848C170B51CEA1A
:10100000111E1EBF1CEA13159EEA0C0F95EA0C0F69
:1010100000F06F8081EA030423EA4C134EEAD47E89
:1010200021EA4C1141F4801143F48013AE44A1FB3A
:10103000024CA0FB0365AEF17F7E361955EB0C0523
:10104000A1FB034C4CF10003A0FB021C16EB0C06A9
:10105000654153F10003094218BF46F0010613F43D
:10106000007F0BD14FEA03314FEA0530340341EAE8
:10107000155140EA16506FF003020AE04FEAC3210F
:101080004FEAC520F40241EA555140EA56506FF04C
:10109000020202EB2E4201EB025585EACE710AD024
:1010A0005FEA440C18BF24F0004450F1000041F105
:1010B000000120EAD47040F2FE7C624500D270BD8F
:1010C000A84214BF4FF080444FF04044002E08BFA8
:1010D0000024BEF1806FA8BFA1F1C041BDE87040FF
:1010E00080F282804FF0000001F1C04101F0004128
:1010F00070479EEA0C0F0CEA131518BF95EA0C0F07
:1011000006D04FF0000081EA030E0EF0004170BDE2
:1011100000F01CF88900013E00F007B800F009B8A3
:101120004FEA430C5FEA5C5C08D081EA030100F0FF
:101130005BB84FEA410C5FEA5C5CF6D14FF000000F
:10114000014970470000FF070000F87F0EF1020E12
:101150002EF0030E5EF8046B364205D4012A43EBF1
:10116000030515F5001F12D8012841EB010C1CF5F1
:10117000001F0CD80ED14FEAD17C15F5001F0CEBE7
:101180004C0C0CF1020C08BF4CEBD37C04E04FF08C
:10119000080C01E04FEAD37C0CEB4C0526FA05F66F
:1011A00006F00706B6F1040C06D20EEB860CBDE87D
:1011B00070404CF0010C6047DFE80CF0090B0202B4
:1011C0004FF000414FF00000A1F5002170BD19461D
:1011D0001046012851EB010418BFD4F5001484BF58
:1011E000002001F0004170BD0808A0F500114FEA91
:1011F0003101704743004FEAD30C4FEA3C0C4340A7
:101200001FBF40070CF1605113F0FE4F70471CF0F8
:10121000006F03D100200CF0004170470CF0004338
:1012200043EA507010B540EACC0000F0C0F800BFAF
:10123000000000924FEA0001FFF7D6BF4FF00041D7
:101240004FF00000A1F500217047000041000B0E97
:10125000D3F19E0208D950F400034FEA032323FA86
:1012600002F048BF4042704710B500F0A0F800BF40
:1012700049922480002070476FF0004282EA2000EB
:1012800070470000B0FA80F310FA03F2C3F19D0337
:101290000AD0D90501EB1220530638BF704700F180
:1012A000010008BF20F00100704700004FF47F0CE0
:1012B0001CEAD0121EBF1CEAD11392EA0C0F93EA6B
:1012C0000C0F00F0478090EA010F48BF42F4807293
:1012D0004FF0004C4CEA00204CEA012102EB0302E3
:1012E000A0FB0113A2F50002002918BF43F001037F
:1012F0005B0028BF4FEA330342EB22425FEA132C24
:101300004CEBC2502EBFBCEB436FB2F57C0F704765
:101310004FEA036CBCF1004F08BF20F00100B2F5AA
:101320007C0F38BF70470BD582F0FF0212F5803F6B
:10133000C8BF704700F1C040D8BF00F00040704700
:1013400000F5000C5FEA4C0C48BF7047B0F1C0409C
:1013500000F073B890EA010F0CEAD11348BF42F4D1
:101360008072624538BF634504D280EA010000F014
:101370000040704710B500F01AF800BF8900013E28
:1013800000F007B800F009B85FEA410C5FEA1C6C96
:1013900008D080EA010000F050B85FEA400C5FEA34
:1013A0001C6CF6D14FF00040A0F5800070470EF1A4
:1013B000020E2EF0030E5EF8044B244204D44FEAD2
:1013C0004102B2F17F4F11D84FEA4003B3F17F4F92
:1013D0000CD80ED14FEAD07CB2F17F4F0CEB4C0C05
:1013E0000CF1020C08BF4CEBD17C04E04FF0080C70
:1013F00001E04FEAD17C0CEB4C0324FA03F404F037
:101400000704B4F1040C06D20EEB840CBDE81040C6
:101410004CF0010C6047DFE80CF0070802024FF0C7
:101420000040A0F5800010BD0846420018BFD2F170
:10143000807288BF00F0004010BDFF2141EAD0500B
:10144000C00570476414000800000020340000004C
:101450006C01000898140008340000202C070000DC
:101460008801000800A24A040000000000000000FB
:101470000102030406070809000000000000000044
:10148000000000000000010203040102030406073B
:0814900008090204060800002F
:0400000508000131BD
:00000001FF
